{
  "contractName": "MyList",
  "abi": [
    {
      "inputs": [],
      "stateMutability": "nonpayable",
      "type": "constructor"
    },
    {
      "anonymous": false,
      "inputs": [
        {
          "indexed": false,
          "internalType": "uint256",
          "name": "recordId",
          "type": "uint256"
        },
        {
          "indexed": false,
          "internalType": "string",
          "name": "recordData",
          "type": "string"
        },
        {
          "indexed": false,
          "internalType": "string",
          "name": "recordTimestamp",
          "type": "string"
        }
      ],
      "name": "RecordCreated",
      "type": "event"
    },
    {
      "anonymous": false,
      "inputs": [
        {
          "indexed": false,
          "internalType": "uint256",
          "name": "recordId",
          "type": "uint256"
        }
      ],
      "name": "RecordNotFound",
      "type": "event"
    },
    {
      "anonymous": false,
      "inputs": [
        {
          "indexed": false,
          "internalType": "uint256",
          "name": "recordId",
          "type": "uint256"
        },
        {
          "indexed": false,
          "internalType": "string",
          "name": "recordData",
          "type": "string"
        },
        {
          "indexed": false,
          "internalType": "string",
          "name": "timestamp",
          "type": "string"
        }
      ],
      "name": "RecordUpdated",
      "type": "event"
    },
    {
      "inputs": [],
      "name": "recordCount",
      "outputs": [
        {
          "internalType": "uint256",
          "name": "",
          "type": "uint256"
        }
      ],
      "stateMutability": "view",
      "type": "function",
      "constant": true
    },
    {
      "inputs": [
        {
          "internalType": "uint256",
          "name": "",
          "type": "uint256"
        }
      ],
      "name": "records",
      "outputs": [
        {
          "internalType": "uint256",
          "name": "id",
          "type": "uint256"
        },
        {
          "internalType": "string",
          "name": "data",
          "type": "string"
        },
        {
          "internalType": "string",
          "name": "timestamp",
          "type": "string"
        }
      ],
      "stateMutability": "view",
      "type": "function",
      "constant": true
    },
    {
      "inputs": [
        {
          "internalType": "string",
          "name": "_data",
          "type": "string"
        },
        {
          "internalType": "string",
          "name": "_tt",
          "type": "string"
        }
      ],
      "name": "createRecord",
      "outputs": [
        {
          "internalType": "uint256",
          "name": "",
          "type": "uint256"
        }
      ],
      "stateMutability": "nonpayable",
      "type": "function"
    },
    {
      "inputs": [
        {
          "internalType": "uint256",
          "name": "_id",
          "type": "uint256"
        },
        {
          "internalType": "string",
          "name": "_data",
          "type": "string"
        },
        {
          "internalType": "string",
          "name": "_timestamp",
          "type": "string"
        }
      ],
      "name": "updateRecord",
      "outputs": [],
      "stateMutability": "nonpayable",
      "type": "function"
    },
    {
      "inputs": [
        {
          "internalType": "string",
          "name": "_data",
          "type": "string"
        },
        {
          "internalType": "string",
          "name": "_tt",
          "type": "string"
        }
      ],
      "name": "createNewRecord",
      "outputs": [],
      "stateMutability": "nonpayable",
      "type": "function"
    }
  ],
  "bytecode": "0x6080604052600080553480156200001557600080fd5b50620000926040518060400160405280600c81526020017f64756d6d79207265636f726400000000000000000000000000000000000000008152506040518060400160405280600b81526020017f4e6f7620342c20323032310000000000000000000000000000000000000000008152506200009860201b60201c565b6200040c565b600080815480929190620000ac9062000259565b9190505550604051806060016040528060005481526020018381526020018281525060016000805481526020019081526020016000206000820151816000015560208201518160010190805190602001906200010a92919062000170565b5060408201518160020190805190602001906200012992919062000170565b509050507febd3c3583e32d5e38e7f6c4e8576298722a54c4388c63e9bd0bd8503b905fb87600054838360405162000164939291906200035c565b60405180910390a15050565b8280546200017e90620003d6565b90600052602060002090601f016020900481019282620001a25760008555620001ee565b82601f10620001bd57805160ff1916838001178555620001ee565b82800160010185558215620001ee579182015b82811115620001ed578251825591602001919060010190620001d0565b5b509050620001fd919062000201565b5090565b5b808211156200021c57600081600090555060010162000202565b5090565b7f4e487b7100000000000000000000000000000000000000000000000000000000600052601160045260246000fd5b6000819050919050565b600062000266826200024f565b91507fffffffffffffffffffffffffffffffffffffffffffffffffffffffffffffffff8214156200029c576200029b62000220565b5b600182019050919050565b620002b2816200024f565b82525050565b600081519050919050565b600082825260208201905092915050565b60005b83811015620002f4578082015181840152602081019050620002d7565b8381111562000304576000848401525b50505050565b6000601f19601f8301169050919050565b60006200032882620002b8565b620003348185620002c3565b935062000346818560208601620002d4565b62000351816200030a565b840191505092915050565b6000606082019050620003736000830186620002a7565b81810360208301526200038781856200031b565b905081810360408301526200039d81846200031b565b9050949350505050565b7f4e487b7100000000000000000000000000000000000000000000000000000000600052602260045260246000fd5b60006002820490506001821680620003ef57607f821691505b60208210811415620004065762000405620003a7565b5b50919050565b610a24806200041c6000396000f3fe608060405234801561001057600080fd5b50600436106100575760003560e01c806302afbe3e1461005c57806334461067146100785780633812c6a8146100aa578063900407bc146100c6578063c090b4df146100e4575b600080fd5b610076600480360381019061007191906106b8565b610114565b005b610092600480360381019061008d9190610766565b6101e4565b6040516100a19392919061082a565b60405180910390f35b6100c460048036038101906100bf919061086f565b61031e565b005b6100ce610419565b6040516100db91906108fa565b60405180910390f35b6100fe60048036038101906100f991906106b8565b61041f565b60405161010b91906108fa565b60405180910390f35b60008081548092919061012690610944565b9190505550604051806060016040528060005481526020018381526020018281525060016000805481526020019081526020016000206000820151816000015560208201518160010190805190602001906101829291906104bb565b50604082015181600201908051906020019061019f9291906104bb565b509050507febd3c3583e32d5e38e7f6c4e8576298722a54c4388c63e9bd0bd8503b905fb8760005483836040516101d89392919061082a565b60405180910390a15050565b600160205280600052604060002060009150905080600001549080600101805461020d906109bc565b80601f0160208091040260200160405190810160405280929190818152602001828054610239906109bc565b80156102865780601f1061025b57610100808354040283529160200191610286565b820191906000526020600020905b81548152906001019060200180831161026957829003601f168201915b50505050509080600201805461029b906109bc565b80601f01602080910402602001604051908101604052809291908181526020018280546102c7906109bc565b80156103145780601f106102e957610100808354040283529160200191610314565b820191906000526020600020905b8154815290600101906020018083116102f757829003601f168201915b5050505050905083565b60005483116103dc576040518060600160405280848152602001838152602001828152506001600085815260200190815260200160002060008201518160000155602082015181600101908051906020019061037b9291906104bb565b5060408201518160020190805190602001906103989291906104bb565b509050507fd023cc10d90c6f37f5d79613b9204e59bae2530cca36ecc92c4bb5f1fa9e7ad08383836040516103cf9392919061082a565b60405180910390a1610414565b7f5dab5c9b13dfffc51573ce65c7d28c7cff02f074e385639e7857a259328de4c68360405161040b91906108fa565b60405180910390a15b505050565b60005481565b600080600081548092919061043390610944565b91905055506040518060600160405280600054815260200184815260200183815250600160008054815260200190815260200160002060008201518160000155602082015181600101908051906020019061048f9291906104bb565b5060408201518160020190805190602001906104ac9291906104bb565b50905050600054905092915050565b8280546104c7906109bc565b90600052602060002090601f0160209004810192826104e95760008555610530565b82601f1061050257805160ff1916838001178555610530565b82800160010185558215610530579182015b8281111561052f578251825591602001919060010190610514565b5b50905061053d9190610541565b5090565b5b8082111561055a576000816000905550600101610542565b5090565b6000604051905090565b600080fd5b600080fd5b600080fd5b600080fd5b6000601f19601f8301169050919050565b7f4e487b7100000000000000000000000000000000000000000000000000000000600052604160045260246000fd5b6105c58261057c565b810181811067ffffffffffffffff821117156105e4576105e361058d565b5b80604052505050565b60006105f761055e565b905061060382826105bc565b919050565b600067ffffffffffffffff8211156106235761062261058d565b5b61062c8261057c565b9050602081019050919050565b82818337600083830152505050565b600061065b61065684610608565b6105ed565b90508281526020810184848401111561067757610676610577565b5b610682848285610639565b509392505050565b600082601f83011261069f5761069e610572565b5b81356106af848260208601610648565b91505092915050565b600080604083850312156106cf576106ce610568565b5b600083013567ffffffffffffffff8111156106ed576106ec61056d565b5b6106f98582860161068a565b925050602083013567ffffffffffffffff81111561071a5761071961056d565b5b6107268582860161068a565b9150509250929050565b6000819050919050565b61074381610730565b811461074e57600080fd5b50565b6000813590506107608161073a565b92915050565b60006020828403121561077c5761077b610568565b5b600061078a84828501610751565b91505092915050565b61079c81610730565b82525050565b600081519050919050565b600082825260208201905092915050565b60005b838110156107dc5780820151818401526020810190506107c1565b838111156107eb576000848401525b50505050565b60006107fc826107a2565b61080681856107ad565b93506108168185602086016107be565b61081f8161057c565b840191505092915050565b600060608201905061083f6000830186610793565b818103602083015261085181856107f1565b9050818103604083015261086581846107f1565b9050949350505050565b60008060006060848603121561088857610887610568565b5b600061089686828701610751565b935050602084013567ffffffffffffffff8111156108b7576108b661056d565b5b6108c38682870161068a565b925050604084013567ffffffffffffffff8111156108e4576108e361056d565b5b6108f08682870161068a565b9150509250925092565b600060208201905061090f6000830184610793565b92915050565b7f4e487b7100000000000000000000000000000000000000000000000000000000600052601160045260246000fd5b600061094f82610730565b91507fffffffffffffffffffffffffffffffffffffffffffffffffffffffffffffffff82141561098257610981610915565b5b600182019050919050565b7f4e487b7100000000000000000000000000000000000000000000000000000000600052602260045260246000fd5b600060028204905060018216806109d457607f821691505b602082108114156109e8576109e761098d565b5b5091905056fea26469706673582212207a2139f90cfe7877d28ad531103f8f9cff8be62fad3d49d3d4a4c6c94fa621eb64736f6c63430008090033",
  "immutableReferences": {},
  "source": "// SPDX-License-Identifier: MIT\npragma solidity >=0.4.22 <0.9.0;\n\ncontract MyList {\n  uint public recordCount = 0;\n\n  struct Record {\n    uint id;\n    string data;\n    string timestamp;\n  }\n\n  event RecordCreated (\n      uint recordId,\n      string recordData,\n      string recordTimestamp\n  );\n\n  event RecordUpdated (\n    uint recordId,\n    string recordData,\n    string timestamp\n  );\n\n  event RecordNotFound (\n    uint recordId\n  );\n\n  constructor() {\n      createNewRecord(\"dummy record\", \"Nov 4, 2021\");\n  } \n\n  mapping(uint => Record) public records;\n\n  function createRecord(string memory _data, string memory _tt) public returns (uint) {\n      recordCount++;\n      records[recordCount] = Record(recordCount, _data, _tt);\n      return recordCount;\n  }\n\n  function updateRecord(uint _id, string memory _data, string memory _timestamp) public {\n    if(_id<=recordCount) {\n      records[_id] = Record(_id, _data, _timestamp);\n      emit RecordUpdated(_id, _data, _timestamp);\n    }\n    else\n    {\n      emit RecordNotFound(_id);\n    }\n  }\n\nfunction createNewRecord(string memory _data, string memory _tt) public {\n      recordCount++;\n      records[recordCount] = Record(recordCount, _data, _tt);\n      emit RecordCreated(recordCount, _data, _tt);\n  }\n\n\n  //emit the event and it will be available in result.logs[0].args\n// also after u get the mapping object, struct params wll be found with its index like 0, 1, 2 etc\n}\n",
  "sourcePath": "/Users/sudhirdoke/Documents/Software/BlockWorks/truffle-three/src/contracts/MyList.sol",
  "compiler": {
    "name": "solc",
    "version": "0.8.9+commit.e5eed63a.Emscripten.clang"
  },
  "schemaVersion": "3.4.3",
  "updatedAt": "2021-11-05T14:40:28.746Z",
  "networkType": "ethereum",
  "devdoc": {
    "kind": "dev",
    "methods": {},
    "version": 1
  },
  "userdoc": {
    "kind": "user",
    "methods": {},
    "version": 1
  }
}